{
  "contractName": "CrowdFundingStorage",
  "abi": [
    {
      "inputs": [
        {
          "internalType": "uint256",
          "name": "",
          "type": "uint256"
        },
        {
          "internalType": "address",
          "name": "",
          "type": "address"
        }
      ],
      "name": "isParticipate",
      "outputs": [
        {
          "internalType": "bool",
          "name": "",
          "type": "bool"
        }
      ],
      "stateMutability": "view",
      "type": "function"
    },
    {
      "inputs": [],
      "name": "numCampaigns",
      "outputs": [
        {
          "internalType": "uint256",
          "name": "",
          "type": "uint256"
        }
      ],
      "stateMutability": "view",
      "type": "function"
    }
  ],
  "bytecode": "0x608060405234801561001057600080fd5b5060fc8061001f6000396000f3fe6080604052348015600f57600080fd5b506004361060325760003560e01c80632c0f7b6f146037578063728dda19146052575b600080fd5b603f60005481565b6040519081526020015b60405180910390f35b607d605d366004608c565b600360209081526000928352604080842090915290825290205460ff1681565b60405190151581526020016049565b60008060408385031215609e57600080fd5b8235915060208301356001600160a01b038116811460bb57600080fd5b80915050925092905056fea26469706673582212204bf9ad0345555e83777535d5daff15d515df2d070452352e03fee04a3b8db34964736f6c63430008120033",
  "immutableReferences": {},
  "source": "pragma solidity >=0.8.2 <0.9.0;\r\n//创建不同的募资活动，用来募集以太坊\r\n//记录相应活动下的募资总体信息(参与人数，募集的以太坊数量) 以及记录参与的用户地址以及投入数量\r\n//业务逻辑 (用户参与 添加新的募集活动 活动结束后进行资金领取)\r\n\r\n\r\n//基类\r\ncontract CrowdFundingStorage{\r\n    struct Campaign{\r\n        address payable receiver;\r\n        uint numFunders;\r\n        uint fundingGoal;\r\n        uint totalAmount;\r\n    }\r\n\r\n    struct Funder{\r\n        address addr;\r\n        uint amount;\r\n    }\r\n\r\n    uint public numCampaigns;\r\n    mapping(uint => Campaign) campaigns;\r\n    mapping(uint => Funder[]) funders;\r\n    mapping(uint => mapping(address => bool)) public isParticipate;\r\n}\r\n\r\n//继承CrowdFundingStorage 支持多继承\r\ncontract CrowdFunding is CrowdFundingStorage{\r\n\r\n    address immutable owner;\r\n\r\n    constructor(){\r\n        owner = msg.sender;\r\n    }\r\n\r\n\r\n    modifier judgeParticipate(uint campaignID){\r\n        require(isParticipate[campaignID][msg.sender] == false);\r\n        _;\r\n    }\r\n\r\n    modifier isOwner(){\r\n        require(msg.sender == owner);\r\n        _;\r\n    }\r\n\r\n    function newCampaign(address payable receiver,uint goal) external isOwner() returns(uint campaignID){\r\n        campaignID = numCampaigns++;\r\n        Campaign storage c = campaigns[campaignID];\r\n        c.receiver = receiver;\r\n        c.fundingGoal = goal;\r\n    }\r\n\r\n    function bid(uint campaignID) external payable judgeParticipate(campaignID){\r\n        Campaign storage c = campaigns[campaignID];\r\n\r\n        c.totalAmount += msg.value;\r\n        c.numFunders += 1;\r\n\r\n        funders[campaignID].push(Funder({\r\n            addr: msg.sender,\r\n            amount:msg.value\r\n        }));\r\n\r\n        isParticipate[campaignID][msg.sender] = true;\r\n    }\r\n\r\n    function withdraw(uint campaignID) external returns(bool reached){\r\n        Campaign storage c = campaigns[campaignID];\r\n\r\n        if(c.totalAmount < c.fundingGoal){\r\n            return false;\r\n        }\r\n\r\n        uint amount = c.totalAmount;\r\n        c.totalAmount = 0;\r\n        c.receiver.transfer(amount);\r\n\r\n        return true;\r\n    }\r\n}",
  "sourcePath": "D:\\github\\dfinity\\Solidity\\course4\\InitProject\\contracts\\CrowdFunding.sol",
  "compiler": {
    "name": "solc",
    "version": "0.8.18+commit.87f61d96.Emscripten.clang"
  },
  "schemaVersion": "3.4.13",
  "updatedAt": "2023-04-14T11:22:34.883Z",
  "devdoc": {
    "kind": "dev",
    "methods": {},
    "version": 1
  },
  "userdoc": {
    "kind": "user",
    "methods": {},
    "version": 1
  }
}